{
  "contractName": "Todo",
  "abi": [
    {
      "inputs": [
        {
          "internalType": "string",
          "name": "_content",
          "type": "string"
        },
        {
          "internalType": "string",
          "name": "_author",
          "type": "string"
        }
      ],
      "name": "createTask",
      "outputs": [],
      "stateMutability": "nonpayable",
      "type": "function"
    },
    {
      "inputs": [
        {
          "internalType": "uint256",
          "name": "_id",
          "type": "uint256"
        }
      ],
      "name": "getTask",
      "outputs": [
        {
          "internalType": "uint256",
          "name": "",
          "type": "uint256"
        },
        {
          "internalType": "uint256",
          "name": "",
          "type": "uint256"
        },
        {
          "internalType": "string",
          "name": "",
          "type": "string"
        },
        {
          "internalType": "string",
          "name": "",
          "type": "string"
        },
        {
          "internalType": "bool",
          "name": "",
          "type": "bool"
        }
      ],
      "stateMutability": "view",
      "type": "function",
      "constant": true
    },
    {
      "inputs": [],
      "name": "getTasks",
      "outputs": [
        {
          "components": [
            {
              "internalType": "uint256",
              "name": "id",
              "type": "uint256"
            },
            {
              "internalType": "uint256",
              "name": "date",
              "type": "uint256"
            },
            {
              "internalType": "string",
              "name": "content",
              "type": "string"
            },
            {
              "internalType": "string",
              "name": "author",
              "type": "string"
            },
            {
              "internalType": "bool",
              "name": "done",
              "type": "bool"
            }
          ],
          "internalType": "struct Todo.Task[]",
          "name": "",
          "type": "tuple[]"
        }
      ],
      "stateMutability": "view",
      "type": "function",
      "constant": true
    }
  ],
  "bytecode": "0x608060405234801561001057600080fd5b50610dfa806100206000396000f3fe608060405234801561001057600080fd5b50600436106100415760003560e01c806304a87e38146100465780631d65e77e14610064578063292a458514610098575b600080fd5b61004e6100b4565b60405161005b9190610746565b60405180910390f35b61007e600480360381019061007991906107a8565b610266565b60405161008f95949392919061083d565b60405180910390f35b6100b260048036038101906100ad91906109d3565b610483565b005b60606000805480602002602001604051908101604052809291908181526020016000905b8282101561025d57838290600052602060002090600502016040518060a0016040529081600082015481526020016001820154815260200160028201805461011f90610a7a565b80601f016020809104026020016040519081016040528092919081815260200182805461014b90610a7a565b80156101985780601f1061016d57610100808354040283529160200191610198565b820191906000526020600020905b81548152906001019060200180831161017b57829003601f168201915b505050505081526020016003820180546101b190610a7a565b80601f01602080910402602001604051908101604052809291908181526020018280546101dd90610a7a565b801561022a5780601f106101ff5761010080835404028352916020019161022a565b820191906000526020600020905b81548152906001019060200180831161020d57829003601f168201915b505050505081526020016004820160009054906101000a900460ff161515151581525050815260200190600101906100d8565b50505050905090565b6000806060806000808054905086106102b4576040517f08c379a00000000000000000000000000000000000000000000000000000000081526004016102ab90610af7565b60405180910390fd5b85600087815481106102c9576102c8610b17565b5b906000526020600020906005020160010154600088815481106102ef576102ee610b17565b5b90600052602060002090600502016002016000898154811061031457610313610b17565b5b906000526020600020906005020160030160008a8154811061033957610338610b17565b5b906000526020600020906005020160040160009054906101000a900460ff1682805461036490610a7a565b80601f016020809104026020016040519081016040528092919081815260200182805461039090610a7a565b80156103dd5780601f106103b2576101008083540402835291602001916103dd565b820191906000526020600020905b8154815290600101906020018083116103c057829003601f168201915b505050505092508180546103f090610a7a565b80601f016020809104026020016040519081016040528092919081815260200182805461041c90610a7a565b80156104695780601f1061043e57610100808354040283529160200191610469565b820191906000526020600020905b81548152906001019060200180831161044c57829003601f168201915b505050505091509450945094509450945091939590929450565b60006040518060a001604052806000805490508152602001428152602001848152602001838152602001600015158152509080600181540180825580915050600190039060005260206000209060050201600090919091909150600082015181600001556020820151816001015560408201518160020190816105069190610cf2565b50606082015181600301908161051c9190610cf2565b5060808201518160040160006101000a81548160ff02191690831515021790555050505050565b600081519050919050565b600082825260208201905092915050565b6000819050602082019050919050565b6000819050919050565b6105828161056f565b82525050565b600081519050919050565b600082825260208201905092915050565b60005b838110156105c25780820151818401526020810190506105a7565b60008484015250505050565b6000601f19601f8301169050919050565b60006105ea82610588565b6105f48185610593565b93506106048185602086016105a4565b61060d816105ce565b840191505092915050565b60008115159050919050565b61062d81610618565b82525050565b600060a08301600083015161064b6000860182610579565b50602083015161065e6020860182610579565b506040830151848203604086015261067682826105df565b9150506060830151848203606086015261069082826105df565b91505060808301516106a56080860182610624565b508091505092915050565b60006106bc8383610633565b905092915050565b6000602082019050919050565b60006106dc82610543565b6106e6818561054e565b9350836020820285016106f88561055f565b8060005b85811015610734578484038952815161071585826106b0565b9450610720836106c4565b925060208a019950506001810190506106fc565b50829750879550505050505092915050565b6000602082019050818103600083015261076081846106d1565b905092915050565b6000604051905090565b600080fd5b600080fd5b6107858161056f565b811461079057600080fd5b50565b6000813590506107a28161077c565b92915050565b6000602082840312156107be576107bd610772565b5b60006107cc84828501610793565b91505092915050565b6107de8161056f565b82525050565b600082825260208201905092915050565b600061080082610588565b61080a81856107e4565b935061081a8185602086016105a4565b610823816105ce565b840191505092915050565b61083781610618565b82525050565b600060a08201905061085260008301886107d5565b61085f60208301876107d5565b818103604083015261087181866107f5565b9050818103606083015261088581856107f5565b9050610894608083018461082e565b9695505050505050565b600080fd5b600080fd5b7f4e487b7100000000000000000000000000000000000000000000000000000000600052604160045260246000fd5b6108e0826105ce565b810181811067ffffffffffffffff821117156108ff576108fe6108a8565b5b80604052505050565b6000610912610768565b905061091e82826108d7565b919050565b600067ffffffffffffffff82111561093e5761093d6108a8565b5b610947826105ce565b9050602081019050919050565b82818337600083830152505050565b600061097661097184610923565b610908565b905082815260208101848484011115610992576109916108a3565b5b61099d848285610954565b509392505050565b600082601f8301126109ba576109b961089e565b5b81356109ca848260208601610963565b91505092915050565b600080604083850312156109ea576109e9610772565b5b600083013567ffffffffffffffff811115610a0857610a07610777565b5b610a14858286016109a5565b925050602083013567ffffffffffffffff811115610a3557610a34610777565b5b610a41858286016109a5565b9150509250929050565b7f4e487b7100000000000000000000000000000000000000000000000000000000600052602260045260246000fd5b60006002820490506001821680610a9257607f821691505b602082108103610aa557610aa4610a4b565b5b50919050565b7f496e646578206f7574206f662072616e67650000000000000000000000000000600082015250565b6000610ae16012836107e4565b9150610aec82610aab565b602082019050919050565b60006020820190508181036000830152610b1081610ad4565b9050919050565b7f4e487b7100000000000000000000000000000000000000000000000000000000600052603260045260246000fd5b60008190508160005260206000209050919050565b60006020601f8301049050919050565b600082821b905092915050565b600060088302610ba87fffffffffffffffffffffffffffffffffffffffffffffffffffffffffffffffff82610b6b565b610bb28683610b6b565b95508019841693508086168417925050509392505050565b6000819050919050565b6000610bef610bea610be58461056f565b610bca565b61056f565b9050919050565b6000819050919050565b610c0983610bd4565b610c1d610c1582610bf6565b848454610b78565b825550505050565b600090565b610c32610c25565b610c3d818484610c00565b505050565b5b81811015610c6157610c56600082610c2a565b600181019050610c43565b5050565b601f821115610ca657610c7781610b46565b610c8084610b5b565b81016020851015610c8f578190505b610ca3610c9b85610b5b565b830182610c42565b50505b505050565b600082821c905092915050565b6000610cc960001984600802610cab565b1980831691505092915050565b6000610ce28383610cb8565b9150826002028217905092915050565b610cfb82610588565b67ffffffffffffffff811115610d1457610d136108a8565b5b610d1e8254610a7a565b610d29828285610c65565b600060209050601f831160018114610d5c5760008415610d4a578287015190505b610d548582610cd6565b865550610dbc565b601f198416610d6a86610b46565b60005b82811015610d9257848901518255600182019150602085019450602081019050610d6d565b86831015610daf5784890151610dab601f891682610cb8565b8355505b6001600288020188555050505b50505050505056fea2646970667358221220430b37000b7cc30e3a12dc4bf5cdf31d9fc5f8031cac55ea588d962e49982a1964736f6c63430008120033",
  "immutableReferences": {},
  "source": "// SPDX-License-Identifier: MIT\npragma solidity >=0.4.22 <0.9.0;\n\ncontract Todo {\n    struct Task {\n        uint id;\n        uint date;\n        string content;\n        string author;\n        bool done;\n    }\n    Task[] tasks;\n    function createTask(string memory _content, string memory _author) public {\n        tasks.push(Task(\n            tasks.length,\n            block.timestamp,\n            _content,\n            _author,\n            false\n        ));\n    }\n    function getTask(uint _id) public view \n    returns(\n        uint,\n        uint,\n        string memory,\n        string memory,\n        bool\n    ) {\n        require(_id < tasks.length, \"Index out of range\");\n        return(\n            _id,\n            tasks[_id].date,\n            tasks[_id].content,\n            tasks[_id].author,\n            tasks[_id].done\n        );\n    }\n    function getTasks() public view returns (Task[] memory) {\n        return(tasks);\n    }\n}\n",
  "sourcePath": "/Users/deveze/Desktop/jsLearn/contracts/Todo.sol",
  "compiler": {
    "name": "solc",
    "version": "0.8.18+commit.87f61d96.Emscripten.clang"
  },
  "schemaVersion": "3.4.12",
  "updatedAt": "2023-02-23T20:32:44.821Z",
  "networkType": "ethereum",
  "devdoc": {
    "kind": "dev",
    "methods": {},
    "version": 1
  },
  "userdoc": {
    "kind": "user",
    "methods": {},
    "version": 1
  }
}